{
  "address": "0x2485e1b612d6Df96958291F71Cc1fD64074CA833",
  "abi": [
    {
      "inputs": [],
      "name": "retrieve",
      "outputs": [
        {
          "internalType": "uint256",
          "name": "",
          "type": "uint256"
        }
      ],
      "stateMutability": "view",
      "type": "function"
    },
    {
      "inputs": [
        {
          "internalType": "uint256",
          "name": "num",
          "type": "uint256"
        }
      ],
      "name": "store",
      "outputs": [],
      "stateMutability": "nonpayable",
      "type": "function"
    }
  ],
  "transactionHash": "0xa4812e290ec9882643e63813f2df7dbdde3bd00e8ff69b58bf1011a6454fb142",
  "args": [],
  "numDeployments": 1,
  "solcInputHash": "53cb5a34c872ab78ca2183a72b7e23a5",
  "bytecode": "0x6080604052600160005534801561001557600080fd5b5061012f806100256000396000f3fe6080604052348015600f57600080fd5b506004361060325760003560e01c80632e64cec11460375780636057361d146051575b600080fd5b603d6069565b6040516048919060c2565b60405180910390f35b6067600480360381019060639190608f565b6072565b005b60008054905090565b8060008190555050565b60008135905060898160e5565b92915050565b60006020828403121560a057600080fd5b600060ac84828501607c565b91505092915050565b60bc8160db565b82525050565b600060208201905060d5600083018460b5565b92915050565b6000819050919050565b60ec8160db565b811460f657600080fd5b5056fea2646970667358221220b7f56f8d274922ce3795ce8eb8709791914aa8ff2f299a857e260ed8a08c44ac64736f6c63430008040033",
  "devdoc": {
    "details": "Store & retrieve value in a variable",
    "kind": "dev",
    "methods": {
      "retrieve()": {
        "details": "Return value ",
        "returns": {
          "_0": "value of 'number'"
        }
      },
      "store(uint256)": {
        "details": "Store value in variable",
        "params": {
          "num": "value to store"
        }
      }
    },
    "title": "Storage",
    "version": 1
  },
  "userdoc": {
    "kind": "user",
    "methods": {},
    "version": 1
  },
  "storageLayout": {
    "storage": [
      {
        "astId": 5,
        "contract": "contracts/Storage.sol:Storage",
        "label": "number",
        "offset": 0,
        "slot": "0",
        "type": "t_uint256"
      }
    ],
    "types": {
      "t_uint256": {
        "encoding": "inplace",
        "label": "uint256",
        "numberOfBytes": "32"
      }
    }
  }
}