{
  "address": "0xB780ee48207e361E4662BcF8f27d801d93bF9FA6",
  "abi": [
    {
      "inputs": [],
      "stateMutability": "nonpayable",
      "type": "constructor"
    },
    {
      "anonymous": false,
      "inputs": [
        {
          "indexed": false,
          "internalType": "uint256",
          "name": "skuCount",
          "type": "uint256"
        }
      ],
      "name": "ForSale",
      "type": "event"
    },
    {
      "anonymous": false,
      "inputs": [
        {
          "indexed": false,
          "internalType": "uint256",
          "name": "sku",
          "type": "uint256"
        }
      ],
      "name": "Shipped",
      "type": "event"
    },
    {
      "anonymous": false,
      "inputs": [
        {
          "indexed": false,
          "internalType": "uint256",
          "name": "sku",
          "type": "uint256"
        }
      ],
      "name": "Sold",
      "type": "event"
    },
    {
      "inputs": [
        {
          "internalType": "string",
          "name": "_name",
          "type": "string"
        },
        {
          "internalType": "uint256",
          "name": "_price",
          "type": "uint256"
        }
      ],
      "name": "addItem",
      "outputs": [],
      "stateMutability": "nonpayable",
      "type": "function"
    },
    {
      "inputs": [
        {
          "internalType": "uint256",
          "name": "sku",
          "type": "uint256"
        }
      ],
      "name": "buyItem",
      "outputs": [],
      "stateMutability": "payable",
      "type": "function"
    },
    {
      "inputs": [
        {
          "internalType": "uint256",
          "name": "_sku",
          "type": "uint256"
        }
      ],
      "name": "fetchItem",
      "outputs": [
        {
          "internalType": "string",
          "name": "name",
          "type": "string"
        },
        {
          "internalType": "uint256",
          "name": "sku",
          "type": "uint256"
        },
        {
          "internalType": "uint256",
          "name": "price",
          "type": "uint256"
        },
        {
          "internalType": "string",
          "name": "stateIs",
          "type": "string"
        },
        {
          "internalType": "address",
          "name": "seller",
          "type": "address"
        },
        {
          "internalType": "address",
          "name": "buyer",
          "type": "address"
        }
      ],
      "stateMutability": "view",
      "type": "function"
    },
    {
      "inputs": [
        {
          "internalType": "uint256",
          "name": "sku",
          "type": "uint256"
        }
      ],
      "name": "shipItem",
      "outputs": [],
      "stateMutability": "nonpayable",
      "type": "function"
    },
    {
      "inputs": [],
      "name": "skuCount",
      "outputs": [
        {
          "internalType": "uint256",
          "name": "",
          "type": "uint256"
        }
      ],
      "stateMutability": "view",
      "type": "function"
    }
  ],
  "transactionHash": "0x1753d630b3cc48176650bc9f949663460250541d3728cd233b1935313b201851",
  "args": [],
  "numDeployments": 2,
  "solcInputHash": "41bdcce2cbe8b25490163799057f0599",
  "bytecode": "0x608060405234801561001057600080fd5b50336000806101000a81548173ffffffffffffffffffffffffffffffffffffffff021916908373ffffffffffffffffffffffffffffffffffffffff1602179055506000600181905550610fd9806100686000396000f3fe60806040526004361061004a5760003560e01c8063227024731461004f57806362d6bbdf1461007a578063ad4b9cfb146100a3578063e7fb74c7146100e5578063f61c899a14610101575b600080fd5b34801561005b57600080fd5b5061006461012a565b6040516100719190610cf6565b60405180910390f35b34801561008657600080fd5b506100a1600480360381019061009c9190610bb3565b610130565b005b3480156100af57600080fd5b506100ca60048036038101906100c59190610c07565b61039b565b6040516100dc96959493929190610c87565b60405180910390f35b6100ff60048036038101906100fa9190610c07565b6105dd565b005b34801561010d57600080fd5b5061012860048036038101906101239190610c07565b6108e3565b005b60015481565b60008054906101000a900473ffffffffffffffffffffffffffffffffffffffff1673ffffffffffffffffffffffffffffffffffffffff163373ffffffffffffffffffffffffffffffffffffffff161461018857600080fd5b600180546101969190610d83565b6001819055507fa96ae0fc3224ebd79eebfe54bd130cc9cb94416cddd1f2386115e00b725324686001546040516101cd9190610cf6565b60405180910390a16040518060c0016040528083815260200160015481526020018281526020016000600281111561022e577f4e487b7100000000000000000000000000000000000000000000000000000000600052602160045260246000fd5b81526020013373ffffffffffffffffffffffffffffffffffffffff168152602001600073ffffffffffffffffffffffffffffffffffffffff16815250600260006001548152602001908152602001600020600082015181600001908051906020019061029b929190610a93565b50602082015181600101556040820151816002015560608201518160030160006101000a81548160ff02191690836002811115610301577f4e487b7100000000000000000000000000000000000000000000000000000000600052602160045260246000fd5b021790555060808201518160030160016101000a81548173ffffffffffffffffffffffffffffffffffffffff021916908373ffffffffffffffffffffffffffffffffffffffff16021790555060a08201518160040160006101000a81548173ffffffffffffffffffffffffffffffffffffffff021916908373ffffffffffffffffffffffffffffffffffffffff1602179055509050505050565b6060600080606060008060006002600089815260200190815260200160002060000180546103c890610e8b565b80601f01602080910402602001604051908101604052809291908181526020018280546103f490610e8b565b80156104415780601f1061041657610100808354040283529160200191610441565b820191906000526020600020905b81548152906001019060200180831161042457829003601f168201915b5050505050965060026000898152602001908152602001600020600101549550600260008981526020019081526020016000206002015494506002600089815260200190815260200160002060030160009054906101000a900460ff1660028111156104d6577f4e487b7100000000000000000000000000000000000000000000000000000000600052602160045260246000fd5b9050600081141561051e576040518060400160405280600881526020017f466f722053616c650000000000000000000000000000000000000000000000008152509350610561565b6001811415610560576040518060400160405280600481526020017f536f6c640000000000000000000000000000000000000000000000000000000081525093505b5b6002600089815260200190815260200160002060030160019054906101000a900473ffffffffffffffffffffffffffffffffffffffff1692506002600089815260200190815260200160002060040160009054906101000a900473ffffffffffffffffffffffffffffffffffffffff1691505091939550919395565b8060006002811115610618577f4e487b7100000000000000000000000000000000000000000000000000000000600052602160045260246000fd5b6002600083815260200190815260200160002060030160009054906101000a900460ff166002811115610674577f4e487b7100000000000000000000000000000000000000000000000000000000600052602160045260246000fd5b1461067e57600080fd5b6002600083815260200190815260200160002060020154803410156106a257600080fd5b826000339050600060026000878152602001908152602001600020600201549050816002600088815260200190815260200160002060040160006101000a81548173ffffffffffffffffffffffffffffffffffffffff021916908373ffffffffffffffffffffffffffffffffffffffff16021790555060016002600088815260200190815260200160002060030160006101000a81548160ff02191690836002811115610778577f4e487b7100000000000000000000000000000000000000000000000000000000600052602160045260246000fd5b02179055506002600087815260200190815260200160002060030160019054906101000a900473ffffffffffffffffffffffffffffffffffffffff1673ffffffffffffffffffffffffffffffffffffffff166108fc829081150290604051600060405180830381858888f193505050501580156107f9573d6000803e3d6000fd5b507f92f64ca637d023f354075a4be751b169c1a8a9ccb6d33cdd0cb3520543995727866040516108299190610cf6565b60405180910390a150506000600260008381526020019081526020016000206002015490506000813461085c9190610dd9565b90506002600084815260200190815260200160002060040160009054906101000a900473ffffffffffffffffffffffffffffffffffffffff1673ffffffffffffffffffffffffffffffffffffffff166108fc829081150290604051600060405180830381858888f193505050501580156108da573d6000803e3d6000fd5b50505050505050565b806001600281111561091e577f4e487b7100000000000000000000000000000000000000000000000000000000600052602160045260246000fd5b6002600083815260200190815260200160002060030160009054906101000a900460ff16600281111561097a577f4e487b7100000000000000000000000000000000000000000000000000000000600052602160045260246000fd5b1461098457600080fd5b6002600083815260200190815260200160002060030160019054906101000a900473ffffffffffffffffffffffffffffffffffffffff168073ffffffffffffffffffffffffffffffffffffffff163373ffffffffffffffffffffffffffffffffffffffff16146109f357600080fd5b600280600085815260200190815260200160002060030160006101000a81548160ff02191690836002811115610a52577f4e487b7100000000000000000000000000000000000000000000000000000000600052602160045260246000fd5b02179055507ff00b9a5725b80c54016f42114f6ed7792d22eecb116011c4afac29c57bef6c9583604051610a869190610cf6565b60405180910390a1505050565b828054610a9f90610e8b565b90600052602060002090601f016020900481019282610ac15760008555610b08565b82601f10610ada57805160ff1916838001178555610b08565b82800160010185558215610b08579182015b82811115610b07578251825591602001919060010190610aec565b5b509050610b159190610b19565b5090565b5b80821115610b32576000816000905550600101610b1a565b5090565b6000610b49610b4484610d36565b610d11565b905082815260208101848484011115610b6157600080fd5b610b6c848285610e49565b509392505050565b600082601f830112610b8557600080fd5b8135610b95848260208601610b36565b91505092915050565b600081359050610bad81610f8c565b92915050565b60008060408385031215610bc657600080fd5b600083013567ffffffffffffffff811115610be057600080fd5b610bec85828601610b74565b9250506020610bfd85828601610b9e565b9150509250929050565b600060208284031215610c1957600080fd5b6000610c2784828501610b9e565b91505092915050565b610c3981610e0d565b82525050565b6000610c4a82610d67565b610c548185610d72565b9350610c64818560208601610e58565b610c6d81610f7b565b840191505092915050565b610c8181610e3f565b82525050565b600060c0820190508181036000830152610ca18189610c3f565b9050610cb06020830188610c78565b610cbd6040830187610c78565b8181036060830152610ccf8186610c3f565b9050610cde6080830185610c30565b610ceb60a0830184610c30565b979650505050505050565b6000602082019050610d0b6000830184610c78565b92915050565b6000610d1b610d2c565b9050610d278282610ebd565b919050565b6000604051905090565b600067ffffffffffffffff821115610d5157610d50610f4c565b5b610d5a82610f7b565b9050602081019050919050565b600081519050919050565b600082825260208201905092915050565b6000610d8e82610e3f565b9150610d9983610e3f565b9250827fffffffffffffffffffffffffffffffffffffffffffffffffffffffffffffffff03821115610dce57610dcd610eee565b5b828201905092915050565b6000610de482610e3f565b9150610def83610e3f565b925082821015610e0257610e01610eee565b5b828203905092915050565b6000610e1882610e1f565b9050919050565b600073ffffffffffffffffffffffffffffffffffffffff82169050919050565b6000819050919050565b82818337600083830152505050565b60005b83811015610e76578082015181840152602081019050610e5b565b83811115610e85576000848401525b50505050565b60006002820490506001821680610ea357607f821691505b60208210811415610eb757610eb6610f1d565b5b50919050565b610ec682610f7b565b810181811067ffffffffffffffff82111715610ee557610ee4610f4c565b5b80604052505050565b7f4e487b7100000000000000000000000000000000000000000000000000000000600052601160045260246000fd5b7f4e487b7100000000000000000000000000000000000000000000000000000000600052602260045260246000fd5b7f4e487b7100000000000000000000000000000000000000000000000000000000600052604160045260246000fd5b6000601f19601f8301169050919050565b610f9581610e3f565b8114610fa057600080fd5b5056fea2646970667358221220f03dc220c22342732d5ca7740ac8a7b895237de04119664cf0510c553807ae3f64736f6c63430008040033",
  "devdoc": {
    "kind": "dev",
    "methods": {},
    "version": 1
  },
  "userdoc": {
    "kind": "user",
    "methods": {},
    "version": 1
  },
  "storageLayout": {
    "storage": [
      {
        "astId": 3,
        "contract": "contracts/Shop.sol:Shop",
        "label": "owner",
        "offset": 0,
        "slot": "0",
        "type": "t_address"
      },
      {
        "astId": 5,
        "contract": "contracts/Shop.sol:Shop",
        "label": "skuCount",
        "offset": 0,
        "slot": "1",
        "type": "t_uint256"
      },
      {
        "astId": 28,
        "contract": "contracts/Shop.sol:Shop",
        "label": "items",
        "offset": 0,
        "slot": "2",
        "type": "t_mapping(t_uint256,t_struct(Item)23_storage)"
      }
    ],
    "types": {
      "t_address": {
        "encoding": "inplace",
        "label": "address",
        "numberOfBytes": "20"
      },
      "t_enum(State)9": {
        "encoding": "inplace",
        "label": "enum Shop.State",
        "numberOfBytes": "1"
      },
      "t_mapping(t_uint256,t_struct(Item)23_storage)": {
        "encoding": "mapping",
        "key": "t_uint256",
        "label": "mapping(uint256 => struct Shop.Item)",
        "numberOfBytes": "32",
        "value": "t_struct(Item)23_storage"
      },
      "t_string_storage": {
        "encoding": "bytes",
        "label": "string",
        "numberOfBytes": "32"
      },
      "t_struct(Item)23_storage": {
        "encoding": "inplace",
        "label": "struct Shop.Item",
        "members": [
          {
            "astId": 11,
            "contract": "contracts/Shop.sol:Shop",
            "label": "name",
            "offset": 0,
            "slot": "0",
            "type": "t_string_storage"
          },
          {
            "astId": 13,
            "contract": "contracts/Shop.sol:Shop",
            "label": "sku",
            "offset": 0,
            "slot": "1",
            "type": "t_uint256"
          },
          {
            "astId": 15,
            "contract": "contracts/Shop.sol:Shop",
            "label": "price",
            "offset": 0,
            "slot": "2",
            "type": "t_uint256"
          },
          {
            "astId": 18,
            "contract": "contracts/Shop.sol:Shop",
            "label": "state",
            "offset": 0,
            "slot": "3",
            "type": "t_enum(State)9"
          },
          {
            "astId": 20,
            "contract": "contracts/Shop.sol:Shop",
            "label": "seller",
            "offset": 1,
            "slot": "3",
            "type": "t_address"
          },
          {
            "astId": 22,
            "contract": "contracts/Shop.sol:Shop",
            "label": "buyer",
            "offset": 0,
            "slot": "4",
            "type": "t_address"
          }
        ],
        "numberOfBytes": "160"
      },
      "t_uint256": {
        "encoding": "inplace",
        "label": "uint256",
        "numberOfBytes": "32"
      }
    }
  }
}