{
  "address": "0x9538182a45c742AA8963Cce09Fd44f3B593fe4f3",
  "abi": [
    {
      "inputs": [],
      "stateMutability": "nonpayable",
      "type": "constructor"
    },
    {
      "anonymous": false,
      "inputs": [
        {
          "indexed": true,
          "internalType": "address",
          "name": "owner",
          "type": "address"
        },
        {
          "indexed": true,
          "internalType": "address",
          "name": "spender",
          "type": "address"
        },
        {
          "indexed": false,
          "internalType": "uint256",
          "name": "value",
          "type": "uint256"
        }
      ],
      "name": "Approval",
      "type": "event"
    },
    {
      "anonymous": false,
      "inputs": [
        {
          "indexed": true,
          "internalType": "address",
          "name": "from",
          "type": "address"
        },
        {
          "indexed": true,
          "internalType": "address",
          "name": "to",
          "type": "address"
        },
        {
          "indexed": false,
          "internalType": "uint256",
          "name": "value",
          "type": "uint256"
        }
      ],
      "name": "Transfer",
      "type": "event"
    },
    {
      "inputs": [],
      "name": "UNIT_MULTIPLIER",
      "outputs": [
        {
          "internalType": "uint256",
          "name": "",
          "type": "uint256"
        }
      ],
      "stateMutability": "view",
      "type": "function"
    },
    {
      "inputs": [
        {
          "internalType": "address",
          "name": "owner",
          "type": "address"
        },
        {
          "internalType": "address",
          "name": "spender",
          "type": "address"
        }
      ],
      "name": "allowance",
      "outputs": [
        {
          "internalType": "uint256",
          "name": "",
          "type": "uint256"
        }
      ],
      "stateMutability": "view",
      "type": "function"
    },
    {
      "inputs": [
        {
          "internalType": "address",
          "name": "spender",
          "type": "address"
        },
        {
          "internalType": "uint256",
          "name": "value",
          "type": "uint256"
        }
      ],
      "name": "approve",
      "outputs": [
        {
          "internalType": "bool",
          "name": "",
          "type": "bool"
        }
      ],
      "stateMutability": "nonpayable",
      "type": "function"
    },
    {
      "inputs": [],
      "name": "balance",
      "outputs": [
        {
          "internalType": "uint256",
          "name": "",
          "type": "uint256"
        }
      ],
      "stateMutability": "view",
      "type": "function"
    },
    {
      "inputs": [
        {
          "internalType": "address",
          "name": "owner",
          "type": "address"
        }
      ],
      "name": "balanceOf",
      "outputs": [
        {
          "internalType": "uint256",
          "name": "",
          "type": "uint256"
        }
      ],
      "stateMutability": "view",
      "type": "function"
    },
    {
      "inputs": [
        {
          "internalType": "address",
          "name": "account",
          "type": "address"
        },
        {
          "internalType": "uint256",
          "name": "amount",
          "type": "uint256"
        }
      ],
      "name": "burn",
      "outputs": [],
      "stateMutability": "nonpayable",
      "type": "function"
    },
    {
      "inputs": [],
      "name": "decimals",
      "outputs": [
        {
          "internalType": "uint256",
          "name": "",
          "type": "uint256"
        }
      ],
      "stateMutability": "view",
      "type": "function"
    },
    {
      "inputs": [],
      "name": "initialSupply",
      "outputs": [
        {
          "internalType": "uint256",
          "name": "",
          "type": "uint256"
        }
      ],
      "stateMutability": "view",
      "type": "function"
    },
    {
      "inputs": [
        {
          "internalType": "address",
          "name": "account",
          "type": "address"
        },
        {
          "internalType": "uint256",
          "name": "amount",
          "type": "uint256"
        }
      ],
      "name": "mint",
      "outputs": [],
      "stateMutability": "nonpayable",
      "type": "function"
    },
    {
      "inputs": [],
      "name": "name",
      "outputs": [
        {
          "internalType": "string",
          "name": "",
          "type": "string"
        }
      ],
      "stateMutability": "view",
      "type": "function"
    },
    {
      "inputs": [],
      "name": "symbol",
      "outputs": [
        {
          "internalType": "string",
          "name": "",
          "type": "string"
        }
      ],
      "stateMutability": "view",
      "type": "function"
    },
    {
      "inputs": [],
      "name": "total",
      "outputs": [
        {
          "internalType": "uint256",
          "name": "",
          "type": "uint256"
        }
      ],
      "stateMutability": "view",
      "type": "function"
    },
    {
      "inputs": [],
      "name": "totalSupply",
      "outputs": [
        {
          "internalType": "uint256",
          "name": "",
          "type": "uint256"
        }
      ],
      "stateMutability": "view",
      "type": "function"
    },
    {
      "inputs": [
        {
          "internalType": "address",
          "name": "to",
          "type": "address"
        },
        {
          "internalType": "uint256",
          "name": "value",
          "type": "uint256"
        }
      ],
      "name": "transfer",
      "outputs": [
        {
          "internalType": "bool",
          "name": "",
          "type": "bool"
        }
      ],
      "stateMutability": "nonpayable",
      "type": "function"
    },
    {
      "inputs": [
        {
          "internalType": "address",
          "name": "from",
          "type": "address"
        },
        {
          "internalType": "address",
          "name": "to",
          "type": "address"
        },
        {
          "internalType": "uint256",
          "name": "value",
          "type": "uint256"
        }
      ],
      "name": "transferFrom",
      "outputs": [
        {
          "internalType": "bool",
          "name": "",
          "type": "bool"
        }
      ],
      "stateMutability": "nonpayable",
      "type": "function"
    }
  ],
  "transactionHash": "0xda9a6dd7a26761f82da3c933a69f8e3eb1df1c9c8464af4c4677a5d8e00501ad",
  "args": [],
  "numDeployments": 3,
  "solcInputHash": "26b1b84b0c4384b68a8e81aa034ae08c",
  "bytecode": "0x60806040523480156200001157600080fd5b50336000806101000a81548173ffffffffffffffffffffffffffffffffffffffff021916908373ffffffffffffffffffffffffffffffffffffffff1602179055506040518060400160405280600581526020017f546f6b656e000000000000000000000000000000000000000000000000000000815250600190805190602001906200009f929190620001c5565b506040518060400160405280600381526020017f544b4e000000000000000000000000000000000000000000000000000000000081525060029080519060200190620000ed929190620001c5565b506012600381905550600354600a620001079190620002d0565b60088190555060006103e890506200013060085482620001ad60201b62000d971790919060201c565b600681905550600654600781905550600654600460008060009054906101000a900473ffffffffffffffffffffffffffffffffffffffff1673ffffffffffffffffffffffffffffffffffffffff1673ffffffffffffffffffffffffffffffffffffffff168152602001908152602001600020819055505062000519565b60008183620001bd91906200040d565b905092915050565b828054620001d39062000478565b90600052602060002090601f016020900481019282620001f7576000855562000243565b82601f106200021257805160ff191683800117855562000243565b8280016001018555821562000243579182015b828111156200024257825182559160200191906001019062000225565b5b50905062000252919062000256565b5090565b5b808211156200027157600081600090555060010162000257565b5090565b6000808291508390505b6001851115620002c7578086048111156200029f576200029e620004ae565b5b6001851615620002af5780820291505b8081029050620002bf856200050c565b94506200027f565b94509492505050565b6000620002dd826200046e565b9150620002ea836200046e565b9250620003197fffffffffffffffffffffffffffffffffffffffffffffffffffffffffffffffff848462000321565b905092915050565b60008262000333576001905062000406565b8162000343576000905062000406565b81600181146200035c576002811462000367576200039d565b600191505062000406565b60ff8411156200037c576200037b620004ae565b5b8360020a915084821115620003965762000395620004ae565b5b5062000406565b5060208310610133831016604e8410600b8410161715620003d75782820a905083811115620003d157620003d0620004ae565b5b62000406565b620003e6848484600162000275565b925090508184048111156200040057620003ff620004ae565b5b81810290505b9392505050565b60006200041a826200046e565b915062000427836200046e565b9250817fffffffffffffffffffffffffffffffffffffffffffffffffffffffffffffffff0483118215151615620004635762000462620004ae565b5b828202905092915050565b6000819050919050565b600060028204905060018216806200049157607f821691505b60208210811415620004a857620004a7620004dd565b5b50919050565b7f4e487b7100000000000000000000000000000000000000000000000000000000600052601160045260246000fd5b7f4e487b7100000000000000000000000000000000000000000000000000000000600052602260045260246000fd5b60008160011c9050919050565b6112b480620005296000396000f3fe608060405234801561001057600080fd5b50600436106100f55760003560e01c806340c10f1911610097578063a9059cbb11610066578063a9059cbb14610276578063b69ef8a8146102a6578063dd62ed3e146102c4578063fc540cd3146102f4576100f5565b806340c10f19146101f057806370a082311461020c57806395d89b411461023c5780639dc29fac1461025a576100f5565b806323b872dd116100d357806323b872dd146101665780632ddbd13a14610196578063313ce567146101b4578063378dc3dc146101d2576100f5565b806306fdde03146100fa578063095ea7b31461011857806318160ddd14610148575b600080fd5b610102610312565b60405161010f9190610f88565b60405180910390f35b610132600480360381019061012d9190610eb7565b6103a0565b60405161013f9190610f6d565b60405180910390f35b610150610492565b60405161015d9190610fca565b60405180910390f35b610180600480360381019061017b9190610e68565b61049c565b60405161018d9190610f6d565b60405180910390f35b61019e610891565b6040516101ab9190610fca565b60405180910390f35b6101bc610897565b6040516101c99190610fca565b60405180910390f35b6101da61089d565b6040516101e79190610fca565b60405180910390f35b61020a60048036038101906102059190610eb7565b6108a3565b005b61022660048036038101906102219190610e03565b610916565b6040516102339190610fca565b60405180910390f35b61024461095f565b6040516102519190610f88565b60405180910390f35b610274600480360381019061026f9190610eb7565b6109ed565b005b610290600480360381019061028b9190610eb7565b610ad8565b60405161029d9190610f6d565b60405180910390f35b6102ae610cfa565b6040516102bb9190610fca565b60405180910390f35b6102de60048036038101906102d99190610e2c565b610d0a565b6040516102eb9190610fca565b60405180910390f35b6102fc610d91565b6040516103099190610fca565b60405180910390f35b6001805461031f90611160565b80601f016020809104026020016040519081016040528092919081815260200182805461034b90611160565b80156103985780601f1061036d57610100808354040283529160200191610398565b820191906000526020600020905b81548152906001019060200180831161037b57829003601f168201915b505050505081565b600081600560003373ffffffffffffffffffffffffffffffffffffffff1673ffffffffffffffffffffffffffffffffffffffff16815260200190815260200160002060008573ffffffffffffffffffffffffffffffffffffffff1673ffffffffffffffffffffffffffffffffffffffff168152602001908152602001600020819055508273ffffffffffffffffffffffffffffffffffffffff163373ffffffffffffffffffffffffffffffffffffffff167f8c5be1e5ebec7d5bd14f71427d1e84f3dd0314c0f7b2291e5b200ac8c7c3b925846040516104809190610fca565b60405180910390a36001905092915050565b6000600654905090565b60008073ffffffffffffffffffffffffffffffffffffffff168473ffffffffffffffffffffffffffffffffffffffff1614156104d757600080fd5b600560008573ffffffffffffffffffffffffffffffffffffffff1673ffffffffffffffffffffffffffffffffffffffff16815260200190815260200160002060003373ffffffffffffffffffffffffffffffffffffffff1673ffffffffffffffffffffffffffffffffffffffff1681526020019081526020016000205482111561056057600080fd5b61056984610916565b82111561057557600080fd5b600073ffffffffffffffffffffffffffffffffffffffff168373ffffffffffffffffffffffffffffffffffffffff1614156105af57600080fd5b8273ffffffffffffffffffffffffffffffffffffffff168473ffffffffffffffffffffffffffffffffffffffff1614156105e857600080fd5b61063a82600460008773ffffffffffffffffffffffffffffffffffffffff1673ffffffffffffffffffffffffffffffffffffffff16815260200190815260200160002054610dad90919063ffffffff16565b600460008673ffffffffffffffffffffffffffffffffffffffff1673ffffffffffffffffffffffffffffffffffffffff168152602001908152602001600020819055506106cf82600460008673ffffffffffffffffffffffffffffffffffffffff1673ffffffffffffffffffffffffffffffffffffffff16815260200190815260200160002054610dc390919063ffffffff16565b600460008573ffffffffffffffffffffffffffffffffffffffff1673ffffffffffffffffffffffffffffffffffffffff168152602001908152602001600020819055506107a182600560008773ffffffffffffffffffffffffffffffffffffffff1673ffffffffffffffffffffffffffffffffffffffff16815260200190815260200160002060003373ffffffffffffffffffffffffffffffffffffffff1673ffffffffffffffffffffffffffffffffffffffff16815260200190815260200160002054610dad90919063ffffffff16565b600560008673ffffffffffffffffffffffffffffffffffffffff1673ffffffffffffffffffffffffffffffffffffffff16815260200190815260200160002060003373ffffffffffffffffffffffffffffffffffffffff1673ffffffffffffffffffffffffffffffffffffffff168152602001908152602001600020819055508273ffffffffffffffffffffffffffffffffffffffff168473ffffffffffffffffffffffffffffffffffffffff167fddf252ad1be2c89b69c2b068fc378daa952ba7f163c4a11628f55a4df523b3ef8460405161087e9190610fca565b60405180910390a3600190509392505050565b60065481565b60035481565b60075481565b80600660008282546108b59190611001565b9250508190555080600460008473ffffffffffffffffffffffffffffffffffffffff1673ffffffffffffffffffffffffffffffffffffffff168152602001908152602001600020600082825461090b9190611001565b925050819055505050565b6000600460008373ffffffffffffffffffffffffffffffffffffffff1673ffffffffffffffffffffffffffffffffffffffff168152602001908152602001600020549050919050565b6002805461096c90611160565b80601f016020809104026020016040519081016040528092919081815260200182805461099890611160565b80156109e55780601f106109ba576101008083540402835291602001916109e5565b820191906000526020600020905b8154815290600101906020018083116109c857829003601f168201915b505050505081565b6000600460008473ffffffffffffffffffffffffffffffffffffffff1673ffffffffffffffffffffffffffffffffffffffff16815260200190815260200160002054905081811015610a74576040517f08c379a0000000000000000000000000000000000000000000000000000000008152600401610a6b90610faa565b60405180910390fd5b818103600460008573ffffffffffffffffffffffffffffffffffffffff1673ffffffffffffffffffffffffffffffffffffffff168152602001908152602001600020819055508160066000828254610acc91906110b1565b92505081905550505050565b60008073ffffffffffffffffffffffffffffffffffffffff168373ffffffffffffffffffffffffffffffffffffffff161415610b1357600080fd5b3373ffffffffffffffffffffffffffffffffffffffff168373ffffffffffffffffffffffffffffffffffffffff161415610b4c57600080fd5b610b5533610916565b821115610b6157600080fd5b610bb382600460003373ffffffffffffffffffffffffffffffffffffffff1673ffffffffffffffffffffffffffffffffffffffff16815260200190815260200160002054610dad90919063ffffffff16565b600460003373ffffffffffffffffffffffffffffffffffffffff1673ffffffffffffffffffffffffffffffffffffffff16815260200190815260200160002081905550610c4882600460008673ffffffffffffffffffffffffffffffffffffffff1673ffffffffffffffffffffffffffffffffffffffff16815260200190815260200160002054610dc390919063ffffffff16565b600460008573ffffffffffffffffffffffffffffffffffffffff1673ffffffffffffffffffffffffffffffffffffffff168152602001908152602001600020819055508273ffffffffffffffffffffffffffffffffffffffff163373ffffffffffffffffffffffffffffffffffffffff167fddf252ad1be2c89b69c2b068fc378daa952ba7f163c4a11628f55a4df523b3ef84604051610ce89190610fca565b60405180910390a36001905092915050565b6000610d0533610916565b905090565b6000600560008473ffffffffffffffffffffffffffffffffffffffff1673ffffffffffffffffffffffffffffffffffffffff16815260200190815260200160002060008373ffffffffffffffffffffffffffffffffffffffff1673ffffffffffffffffffffffffffffffffffffffff16815260200190815260200160002054905092915050565b60085481565b60008183610da59190611057565b905092915050565b60008183610dbb91906110b1565b905092915050565b60008183610dd19190611001565b905092915050565b600081359050610de881611250565b92915050565b600081359050610dfd81611267565b92915050565b600060208284031215610e1557600080fd5b6000610e2384828501610dd9565b91505092915050565b60008060408385031215610e3f57600080fd5b6000610e4d85828601610dd9565b9250506020610e5e85828601610dd9565b9150509250929050565b600080600060608486031215610e7d57600080fd5b6000610e8b86828701610dd9565b9350506020610e9c86828701610dd9565b9250506040610ead86828701610dee565b9150509250925092565b60008060408385031215610eca57600080fd5b6000610ed885828601610dd9565b9250506020610ee985828601610dee565b9150509250929050565b610efc816110f7565b82525050565b6000610f0d82610fe5565b610f178185610ff0565b9350610f2781856020860161112d565b610f30816111f0565b840191505092915050565b6000610f48602283610ff0565b9150610f5382611201565b604082019050919050565b610f6781611123565b82525050565b6000602082019050610f826000830184610ef3565b92915050565b60006020820190508181036000830152610fa28184610f02565b905092915050565b60006020820190508181036000830152610fc381610f3b565b9050919050565b6000602082019050610fdf6000830184610f5e565b92915050565b600081519050919050565b600082825260208201905092915050565b600061100c82611123565b915061101783611123565b9250827fffffffffffffffffffffffffffffffffffffffffffffffffffffffffffffffff0382111561104c5761104b611192565b5b828201905092915050565b600061106282611123565b915061106d83611123565b9250817fffffffffffffffffffffffffffffffffffffffffffffffffffffffffffffffff04831182151516156110a6576110a5611192565b5b828202905092915050565b60006110bc82611123565b91506110c783611123565b9250828210156110da576110d9611192565b5b828203905092915050565b60006110f082611103565b9050919050565b60008115159050919050565b600073ffffffffffffffffffffffffffffffffffffffff82169050919050565b6000819050919050565b60005b8381101561114b578082015181840152602081019050611130565b8381111561115a576000848401525b50505050565b6000600282049050600182168061117857607f821691505b6020821081141561118c5761118b6111c1565b5b50919050565b7f4e487b7100000000000000000000000000000000000000000000000000000000600052601160045260246000fd5b7f4e487b7100000000000000000000000000000000000000000000000000000000600052602260045260246000fd5b6000601f19601f8301169050919050565b7f45524332303a206275726e20616d6f756e7420657863656564732062616c616e60008201527f6365000000000000000000000000000000000000000000000000000000000000602082015250565b611259816110e5565b811461126457600080fd5b50565b61127081611123565b811461127b57600080fd5b5056fea2646970667358221220f473ba78e00314a8ae3e3c15571c26e47616ef3a5563eb110ba34a557f4d7e7a64736f6c63430008040033",
  "devdoc": {
    "kind": "dev",
    "methods": {
      "allowance(address,address)": {
        "details": "Checks the amount of tokens that an owner allowed to a spender.",
        "params": {
          "owner": "address The address which owns the funds.",
          "spender": "address The address which will spend the funds."
        },
        "returns": {
          "_0": "A uint256 specifying the amount of tokens still available for the spender."
        }
      },
      "approve(address,uint256)": {
        "details": "Approves the passed address to spend the specified amount of tokens       on behalf of msg.sender.",
        "params": {
          "spender": "The address which will spend the funds.",
          "value": "The amount of tokens to be spent."
        },
        "returns": {
          "_0": "A bool indicating success (always returns true)"
        }
      },
      "balance()": {
        "details": "Gets the balance of the calling address.",
        "returns": {
          "_0": "An uint256 representing the amount owned by the calling address"
        }
      },
      "balanceOf(address)": {
        "details": "Gets the balance of the specified address.",
        "params": {
          "owner": "The address to query the balance of"
        },
        "returns": {
          "_0": "An uint256 representing the amount owned by the passed address"
        }
      },
      "burn(address,uint256)": {
        "details": "Destroys `amount` tokens from `account`, reducing the total supply. View OpenZeppelin ERC20 _burn for more advanced burning features https://github.com/OpenZeppelin/openzeppelin-contracts/blob/5b6112000c2e1b61db63d7b0bb33ab0775ec0975/contracts/token/ERC20/ERC20.sol#L280 Requirements: - `account` must have at least `amount` tokens."
      },
      "mint(address,uint256)": {
        "details": "Creates `amount` tokens and assigns them to `account`, increasing the total supply. View OpenZeppelin ERC20 _mint for more advanced minting features https://github.com/OpenZeppelin/openzeppelin-contracts/blob/5b6112000c2e1b61db63d7b0bb33ab0775ec0975/contracts/token/ERC20/ERC20.sol#L257 "
      },
      "totalSupply()": {
        "details": "Total supply of tokens"
      },
      "transfer(address,uint256)": {
        "details": "Transfers token for a specified address",
        "params": {
          "to": "The address to transfer to.",
          "value": "The amount to be transferred."
        },
        "returns": {
          "_0": "A bool indicating if the transfer was successful."
        }
      },
      "transferFrom(address,address,uint256)": {
        "details": "Transfers tokens from one address to another",
        "params": {
          "from": "address The address which you want to send tokens from",
          "to": "address The address which you want to transfer to",
          "value": "uint256 the amount of tokens to be transferred"
        },
        "returns": {
          "_0": "A bool indicating if the transfer was successful."
        }
      }
    },
    "version": 1
  },
  "userdoc": {
    "kind": "user",
    "methods": {},
    "version": 1
  },
  "storageLayout": {
    "storage": [
      {
        "astId": 320,
        "contract": "contracts/Token.sol:Token",
        "label": "contractOwner",
        "offset": 0,
        "slot": "0",
        "type": "t_address"
      },
      {
        "astId": 322,
        "contract": "contracts/Token.sol:Token",
        "label": "name",
        "offset": 0,
        "slot": "1",
        "type": "t_string_storage"
      },
      {
        "astId": 324,
        "contract": "contracts/Token.sol:Token",
        "label": "symbol",
        "offset": 0,
        "slot": "2",
        "type": "t_string_storage"
      },
      {
        "astId": 326,
        "contract": "contracts/Token.sol:Token",
        "label": "decimals",
        "offset": 0,
        "slot": "3",
        "type": "t_uint256"
      },
      {
        "astId": 330,
        "contract": "contracts/Token.sol:Token",
        "label": "balances",
        "offset": 0,
        "slot": "4",
        "type": "t_mapping(t_address,t_uint256)"
      },
      {
        "astId": 336,
        "contract": "contracts/Token.sol:Token",
        "label": "allowed",
        "offset": 0,
        "slot": "5",
        "type": "t_mapping(t_address,t_mapping(t_address,t_uint256))"
      },
      {
        "astId": 338,
        "contract": "contracts/Token.sol:Token",
        "label": "total",
        "offset": 0,
        "slot": "6",
        "type": "t_uint256"
      },
      {
        "astId": 340,
        "contract": "contracts/Token.sol:Token",
        "label": "initialSupply",
        "offset": 0,
        "slot": "7",
        "type": "t_uint256"
      },
      {
        "astId": 342,
        "contract": "contracts/Token.sol:Token",
        "label": "UNIT_MULTIPLIER",
        "offset": 0,
        "slot": "8",
        "type": "t_uint256"
      }
    ],
    "types": {
      "t_address": {
        "encoding": "inplace",
        "label": "address",
        "numberOfBytes": "20"
      },
      "t_mapping(t_address,t_mapping(t_address,t_uint256))": {
        "encoding": "mapping",
        "key": "t_address",
        "label": "mapping(address => mapping(address => uint256))",
        "numberOfBytes": "32",
        "value": "t_mapping(t_address,t_uint256)"
      },
      "t_mapping(t_address,t_uint256)": {
        "encoding": "mapping",
        "key": "t_address",
        "label": "mapping(address => uint256)",
        "numberOfBytes": "32",
        "value": "t_uint256"
      },
      "t_string_storage": {
        "encoding": "bytes",
        "label": "string",
        "numberOfBytes": "32"
      },
      "t_uint256": {
        "encoding": "inplace",
        "label": "uint256",
        "numberOfBytes": "32"
      }
    }
  }
}