{
  "address": "0x86f32AC0E0351e95105835ce85FDD0585646FDDE",
  "abi": [
    {
      "inputs": [],
      "stateMutability": "nonpayable",
      "type": "constructor"
    },
    {
      "anonymous": false,
      "inputs": [
        {
          "indexed": true,
          "internalType": "address",
          "name": "owner",
          "type": "address"
        },
        {
          "indexed": true,
          "internalType": "address",
          "name": "spender",
          "type": "address"
        },
        {
          "indexed": false,
          "internalType": "uint256",
          "name": "value",
          "type": "uint256"
        }
      ],
      "name": "Approval",
      "type": "event"
    },
    {
      "anonymous": false,
      "inputs": [
        {
          "indexed": true,
          "internalType": "address",
          "name": "from",
          "type": "address"
        },
        {
          "indexed": true,
          "internalType": "address",
          "name": "to",
          "type": "address"
        },
        {
          "indexed": false,
          "internalType": "uint256",
          "name": "value",
          "type": "uint256"
        }
      ],
      "name": "Transfer",
      "type": "event"
    },
    {
      "inputs": [],
      "name": "UNIT_MULTIPLIER",
      "outputs": [
        {
          "internalType": "uint256",
          "name": "",
          "type": "uint256"
        }
      ],
      "stateMutability": "view",
      "type": "function"
    },
    {
      "inputs": [
        {
          "internalType": "address",
          "name": "owner",
          "type": "address"
        },
        {
          "internalType": "address",
          "name": "spender",
          "type": "address"
        }
      ],
      "name": "allowance",
      "outputs": [
        {
          "internalType": "uint256",
          "name": "",
          "type": "uint256"
        }
      ],
      "stateMutability": "view",
      "type": "function"
    },
    {
      "inputs": [
        {
          "internalType": "address",
          "name": "spender",
          "type": "address"
        },
        {
          "internalType": "uint256",
          "name": "value",
          "type": "uint256"
        }
      ],
      "name": "approve",
      "outputs": [
        {
          "internalType": "bool",
          "name": "",
          "type": "bool"
        }
      ],
      "stateMutability": "nonpayable",
      "type": "function"
    },
    {
      "inputs": [],
      "name": "balance",
      "outputs": [
        {
          "internalType": "uint256",
          "name": "",
          "type": "uint256"
        }
      ],
      "stateMutability": "view",
      "type": "function"
    },
    {
      "inputs": [
        {
          "internalType": "address",
          "name": "owner",
          "type": "address"
        }
      ],
      "name": "balanceOf",
      "outputs": [
        {
          "internalType": "uint256",
          "name": "",
          "type": "uint256"
        }
      ],
      "stateMutability": "view",
      "type": "function"
    },
    {
      "inputs": [],
      "name": "decimals",
      "outputs": [
        {
          "internalType": "uint256",
          "name": "",
          "type": "uint256"
        }
      ],
      "stateMutability": "view",
      "type": "function"
    },
    {
      "inputs": [],
      "name": "initialSupply",
      "outputs": [
        {
          "internalType": "uint256",
          "name": "",
          "type": "uint256"
        }
      ],
      "stateMutability": "view",
      "type": "function"
    },
    {
      "inputs": [],
      "name": "name",
      "outputs": [
        {
          "internalType": "string",
          "name": "",
          "type": "string"
        }
      ],
      "stateMutability": "view",
      "type": "function"
    },
    {
      "inputs": [],
      "name": "symbol",
      "outputs": [
        {
          "internalType": "string",
          "name": "",
          "type": "string"
        }
      ],
      "stateMutability": "view",
      "type": "function"
    },
    {
      "inputs": [],
      "name": "total",
      "outputs": [
        {
          "internalType": "uint256",
          "name": "",
          "type": "uint256"
        }
      ],
      "stateMutability": "view",
      "type": "function"
    },
    {
      "inputs": [],
      "name": "totalSupply",
      "outputs": [
        {
          "internalType": "uint256",
          "name": "",
          "type": "uint256"
        }
      ],
      "stateMutability": "view",
      "type": "function"
    },
    {
      "inputs": [
        {
          "internalType": "address",
          "name": "to",
          "type": "address"
        },
        {
          "internalType": "uint256",
          "name": "value",
          "type": "uint256"
        }
      ],
      "name": "transfer",
      "outputs": [
        {
          "internalType": "bool",
          "name": "",
          "type": "bool"
        }
      ],
      "stateMutability": "nonpayable",
      "type": "function"
    },
    {
      "inputs": [
        {
          "internalType": "address",
          "name": "from",
          "type": "address"
        },
        {
          "internalType": "address",
          "name": "to",
          "type": "address"
        },
        {
          "internalType": "uint256",
          "name": "value",
          "type": "uint256"
        }
      ],
      "name": "transferFrom",
      "outputs": [
        {
          "internalType": "bool",
          "name": "",
          "type": "bool"
        }
      ],
      "stateMutability": "nonpayable",
      "type": "function"
    }
  ],
  "transactionHash": "0xab056e44bce05f350906f24f874b7a527a78854a9e6e2c99a84569fe5966ff11",
  "args": [],
  "numDeployments": 2,
  "solcInputHash": "81d5068b137204e0389668bb803d6dec",
  "bytecode": "0x60806040523480156200001157600080fd5b50336000806101000a81548173ffffffffffffffffffffffffffffffffffffffff021916908373ffffffffffffffffffffffffffffffffffffffff1602179055506040518060400160405280600581526020017f546f6b656e000000000000000000000000000000000000000000000000000000815250600190805190602001906200009f929190620001c5565b506040518060400160405280600381526020017f544b4e000000000000000000000000000000000000000000000000000000000081525060029080519060200190620000ed929190620001c5565b506012600381905550600354600a620001079190620002d0565b60088190555060006103e890506200013060085482620001ad60201b62000bdb1790919060201c565b600681905550600654600781905550600654600460008060009054906101000a900473ffffffffffffffffffffffffffffffffffffffff1673ffffffffffffffffffffffffffffffffffffffff1673ffffffffffffffffffffffffffffffffffffffff168152602001908152602001600020819055505062000519565b60008183620001bd91906200040d565b905092915050565b828054620001d39062000478565b90600052602060002090601f016020900481019282620001f7576000855562000243565b82601f106200021257805160ff191683800117855562000243565b8280016001018555821562000243579182015b828111156200024257825182559160200191906001019062000225565b5b50905062000252919062000256565b5090565b5b808211156200027157600081600090555060010162000257565b5090565b6000808291508390505b6001851115620002c7578086048111156200029f576200029e620004ae565b5b6001851615620002af5780820291505b8081029050620002bf856200050c565b94506200027f565b94509492505050565b6000620002dd826200046e565b9150620002ea836200046e565b9250620003197fffffffffffffffffffffffffffffffffffffffffffffffffffffffffffffffff848462000321565b905092915050565b60008262000333576001905062000406565b8162000343576000905062000406565b81600181146200035c576002811462000367576200039d565b600191505062000406565b60ff8411156200037c576200037b620004ae565b5b8360020a915084821115620003965762000395620004ae565b5b5062000406565b5060208310610133831016604e8410600b8410161715620003d75782820a905083811115620003d157620003d0620004ae565b5b62000406565b620003e6848484600162000275565b925090508184048111156200040057620003ff620004ae565b5b81810290505b9392505050565b60006200041a826200046e565b915062000427836200046e565b9250817fffffffffffffffffffffffffffffffffffffffffffffffffffffffffffffffff0483118215151615620004635762000462620004ae565b5b828202905092915050565b6000819050919050565b600060028204905060018216806200049157607f821691505b60208210811415620004a857620004a7620004dd565b5b50919050565b7f4e487b7100000000000000000000000000000000000000000000000000000000600052601160045260246000fd5b7f4e487b7100000000000000000000000000000000000000000000000000000000600052602260045260246000fd5b60008160011c9050919050565b61106680620005296000396000f3fe608060405234801561001057600080fd5b50600436106100cf5760003560e01c8063378dc3dc1161008c578063a9059cbb11610066578063a9059cbb14610218578063b69ef8a814610248578063dd62ed3e14610266578063fc540cd314610296576100cf565b8063378dc3dc146101ac57806370a08231146101ca57806395d89b41146101fa576100cf565b806306fdde03146100d4578063095ea7b3146100f257806318160ddd1461012257806323b872dd146101405780632ddbd13a14610170578063313ce5671461018e575b600080fd5b6100dc6102b4565b6040516100e99190610da9565b60405180910390f35b61010c60048036038101906101079190610cfb565b610342565b6040516101199190610d8e565b60405180910390f35b61012a610434565b6040516101379190610dcb565b60405180910390f35b61015a60048036038101906101559190610cac565b61043e565b6040516101679190610d8e565b60405180910390f35b610178610833565b6040516101859190610dcb565b60405180910390f35b610196610839565b6040516101a39190610dcb565b60405180910390f35b6101b461083f565b6040516101c19190610dcb565b60405180910390f35b6101e460048036038101906101df9190610c47565b610845565b6040516101f19190610dcb565b60405180910390f35b61020261088e565b60405161020f9190610da9565b60405180910390f35b610232600480360381019061022d9190610cfb565b61091c565b60405161023f9190610d8e565b60405180910390f35b610250610b3e565b60405161025d9190610dcb565b60405180910390f35b610280600480360381019061027b9190610c70565b610b4e565b60405161028d9190610dcb565b60405180910390f35b61029e610bd5565b6040516102ab9190610dcb565b60405180910390f35b600180546102c190610f61565b80601f01602080910402602001604051908101604052809291908181526020018280546102ed90610f61565b801561033a5780601f1061030f5761010080835404028352916020019161033a565b820191906000526020600020905b81548152906001019060200180831161031d57829003601f168201915b505050505081565b600081600560003373ffffffffffffffffffffffffffffffffffffffff1673ffffffffffffffffffffffffffffffffffffffff16815260200190815260200160002060008573ffffffffffffffffffffffffffffffffffffffff1673ffffffffffffffffffffffffffffffffffffffff168152602001908152602001600020819055508273ffffffffffffffffffffffffffffffffffffffff163373ffffffffffffffffffffffffffffffffffffffff167f8c5be1e5ebec7d5bd14f71427d1e84f3dd0314c0f7b2291e5b200ac8c7c3b925846040516104229190610dcb565b60405180910390a36001905092915050565b6000600654905090565b60008073ffffffffffffffffffffffffffffffffffffffff168473ffffffffffffffffffffffffffffffffffffffff16141561047957600080fd5b600560008573ffffffffffffffffffffffffffffffffffffffff1673ffffffffffffffffffffffffffffffffffffffff16815260200190815260200160002060003373ffffffffffffffffffffffffffffffffffffffff1673ffffffffffffffffffffffffffffffffffffffff1681526020019081526020016000205482111561050257600080fd5b61050b84610845565b82111561051757600080fd5b600073ffffffffffffffffffffffffffffffffffffffff168373ffffffffffffffffffffffffffffffffffffffff16141561055157600080fd5b8273ffffffffffffffffffffffffffffffffffffffff168473ffffffffffffffffffffffffffffffffffffffff16141561058a57600080fd5b6105dc82600460008773ffffffffffffffffffffffffffffffffffffffff1673ffffffffffffffffffffffffffffffffffffffff16815260200190815260200160002054610bf190919063ffffffff16565b600460008673ffffffffffffffffffffffffffffffffffffffff1673ffffffffffffffffffffffffffffffffffffffff1681526020019081526020016000208190555061067182600460008673ffffffffffffffffffffffffffffffffffffffff1673ffffffffffffffffffffffffffffffffffffffff16815260200190815260200160002054610c0790919063ffffffff16565b600460008573ffffffffffffffffffffffffffffffffffffffff1673ffffffffffffffffffffffffffffffffffffffff1681526020019081526020016000208190555061074382600560008773ffffffffffffffffffffffffffffffffffffffff1673ffffffffffffffffffffffffffffffffffffffff16815260200190815260200160002060003373ffffffffffffffffffffffffffffffffffffffff1673ffffffffffffffffffffffffffffffffffffffff16815260200190815260200160002054610bf190919063ffffffff16565b600560008673ffffffffffffffffffffffffffffffffffffffff1673ffffffffffffffffffffffffffffffffffffffff16815260200190815260200160002060003373ffffffffffffffffffffffffffffffffffffffff1673ffffffffffffffffffffffffffffffffffffffff168152602001908152602001600020819055508273ffffffffffffffffffffffffffffffffffffffff168473ffffffffffffffffffffffffffffffffffffffff167fddf252ad1be2c89b69c2b068fc378daa952ba7f163c4a11628f55a4df523b3ef846040516108209190610dcb565b60405180910390a3600190509392505050565b60065481565b60035481565b60075481565b6000600460008373ffffffffffffffffffffffffffffffffffffffff1673ffffffffffffffffffffffffffffffffffffffff168152602001908152602001600020549050919050565b6002805461089b90610f61565b80601f01602080910402602001604051908101604052809291908181526020018280546108c790610f61565b80156109145780601f106108e957610100808354040283529160200191610914565b820191906000526020600020905b8154815290600101906020018083116108f757829003601f168201915b505050505081565b60008073ffffffffffffffffffffffffffffffffffffffff168373ffffffffffffffffffffffffffffffffffffffff16141561095757600080fd5b3373ffffffffffffffffffffffffffffffffffffffff168373ffffffffffffffffffffffffffffffffffffffff16141561099057600080fd5b61099933610845565b8211156109a557600080fd5b6109f782600460003373ffffffffffffffffffffffffffffffffffffffff1673ffffffffffffffffffffffffffffffffffffffff16815260200190815260200160002054610bf190919063ffffffff16565b600460003373ffffffffffffffffffffffffffffffffffffffff1673ffffffffffffffffffffffffffffffffffffffff16815260200190815260200160002081905550610a8c82600460008673ffffffffffffffffffffffffffffffffffffffff1673ffffffffffffffffffffffffffffffffffffffff16815260200190815260200160002054610c0790919063ffffffff16565b600460008573ffffffffffffffffffffffffffffffffffffffff1673ffffffffffffffffffffffffffffffffffffffff168152602001908152602001600020819055508273ffffffffffffffffffffffffffffffffffffffff163373ffffffffffffffffffffffffffffffffffffffff167fddf252ad1be2c89b69c2b068fc378daa952ba7f163c4a11628f55a4df523b3ef84604051610b2c9190610dcb565b60405180910390a36001905092915050565b6000610b4933610845565b905090565b6000600560008473ffffffffffffffffffffffffffffffffffffffff1673ffffffffffffffffffffffffffffffffffffffff16815260200190815260200160002060008373ffffffffffffffffffffffffffffffffffffffff1673ffffffffffffffffffffffffffffffffffffffff16815260200190815260200160002054905092915050565b60085481565b60008183610be99190610e58565b905092915050565b60008183610bff9190610eb2565b905092915050565b60008183610c159190610e02565b905092915050565b600081359050610c2c81611002565b92915050565b600081359050610c4181611019565b92915050565b600060208284031215610c5957600080fd5b6000610c6784828501610c1d565b91505092915050565b60008060408385031215610c8357600080fd5b6000610c9185828601610c1d565b9250506020610ca285828601610c1d565b9150509250929050565b600080600060608486031215610cc157600080fd5b6000610ccf86828701610c1d565b9350506020610ce086828701610c1d565b9250506040610cf186828701610c32565b9150509250925092565b60008060408385031215610d0e57600080fd5b6000610d1c85828601610c1d565b9250506020610d2d85828601610c32565b9150509250929050565b610d4081610ef8565b82525050565b6000610d5182610de6565b610d5b8185610df1565b9350610d6b818560208601610f2e565b610d7481610ff1565b840191505092915050565b610d8881610f24565b82525050565b6000602082019050610da36000830184610d37565b92915050565b60006020820190508181036000830152610dc38184610d46565b905092915050565b6000602082019050610de06000830184610d7f565b92915050565b600081519050919050565b600082825260208201905092915050565b6000610e0d82610f24565b9150610e1883610f24565b9250827fffffffffffffffffffffffffffffffffffffffffffffffffffffffffffffffff03821115610e4d57610e4c610f93565b5b828201905092915050565b6000610e6382610f24565b9150610e6e83610f24565b9250817fffffffffffffffffffffffffffffffffffffffffffffffffffffffffffffffff0483118215151615610ea757610ea6610f93565b5b828202905092915050565b6000610ebd82610f24565b9150610ec883610f24565b925082821015610edb57610eda610f93565b5b828203905092915050565b6000610ef182610f04565b9050919050565b60008115159050919050565b600073ffffffffffffffffffffffffffffffffffffffff82169050919050565b6000819050919050565b60005b83811015610f4c578082015181840152602081019050610f31565b83811115610f5b576000848401525b50505050565b60006002820490506001821680610f7957607f821691505b60208210811415610f8d57610f8c610fc2565b5b50919050565b7f4e487b7100000000000000000000000000000000000000000000000000000000600052601160045260246000fd5b7f4e487b7100000000000000000000000000000000000000000000000000000000600052602260045260246000fd5b6000601f19601f8301169050919050565b61100b81610ee6565b811461101657600080fd5b50565b61102281610f24565b811461102d57600080fd5b5056fea26469706673582212209fe240ba082b64e5035c65dc532089f4ac0b065455ca78494e501f02961ff4de64736f6c63430008040033",
  "devdoc": {
    "kind": "dev",
    "methods": {
      "allowance(address,address)": {
        "details": "Checks the amount of tokens that an owner allowed to a spender.",
        "params": {
          "owner": "address The address which owns the funds.",
          "spender": "address The address which will spend the funds."
        },
        "returns": {
          "_0": "A uint256 specifying the amount of tokens still available for the spender."
        }
      },
      "approve(address,uint256)": {
        "details": "Approves the passed address to spend the specified amount of tokens       on behalf of msg.sender.",
        "params": {
          "spender": "The address which will spend the funds.",
          "value": "The amount of tokens to be spent."
        },
        "returns": {
          "_0": "A bool indicating success (always returns true)"
        }
      },
      "balance()": {
        "details": "Gets the balance of the calling address.",
        "returns": {
          "_0": "An uint256 representing the amount owned by the calling address"
        }
      },
      "balanceOf(address)": {
        "details": "Gets the balance of the specified address.",
        "params": {
          "owner": "The address to query the balance of"
        },
        "returns": {
          "_0": "An uint256 representing the amount owned by the passed address"
        }
      },
      "totalSupply()": {
        "details": "Total supply of tokens"
      },
      "transfer(address,uint256)": {
        "details": "Transfers token for a specified address",
        "params": {
          "to": "The address to transfer to.",
          "value": "The amount to be transferred."
        },
        "returns": {
          "_0": "A bool indicating if the transfer was successful."
        }
      },
      "transferFrom(address,address,uint256)": {
        "details": "Transfers tokens from one address to another",
        "params": {
          "from": "address The address which you want to send tokens from",
          "to": "address The address which you want to transfer to",
          "value": "uint256 the amount of tokens to be transferred"
        },
        "returns": {
          "_0": "A bool indicating if the transfer was successful."
        }
      }
    },
    "version": 1
  },
  "userdoc": {
    "kind": "user",
    "methods": {},
    "version": 1
  },
  "storageLayout": {
    "storage": [
      {
        "astId": 420,
        "contract": "contracts/Token.sol:Token",
        "label": "contractOwner",
        "offset": 0,
        "slot": "0",
        "type": "t_address"
      },
      {
        "astId": 422,
        "contract": "contracts/Token.sol:Token",
        "label": "name",
        "offset": 0,
        "slot": "1",
        "type": "t_string_storage"
      },
      {
        "astId": 424,
        "contract": "contracts/Token.sol:Token",
        "label": "symbol",
        "offset": 0,
        "slot": "2",
        "type": "t_string_storage"
      },
      {
        "astId": 426,
        "contract": "contracts/Token.sol:Token",
        "label": "decimals",
        "offset": 0,
        "slot": "3",
        "type": "t_uint256"
      },
      {
        "astId": 430,
        "contract": "contracts/Token.sol:Token",
        "label": "balances",
        "offset": 0,
        "slot": "4",
        "type": "t_mapping(t_address,t_uint256)"
      },
      {
        "astId": 436,
        "contract": "contracts/Token.sol:Token",
        "label": "allowed",
        "offset": 0,
        "slot": "5",
        "type": "t_mapping(t_address,t_mapping(t_address,t_uint256))"
      },
      {
        "astId": 438,
        "contract": "contracts/Token.sol:Token",
        "label": "total",
        "offset": 0,
        "slot": "6",
        "type": "t_uint256"
      },
      {
        "astId": 440,
        "contract": "contracts/Token.sol:Token",
        "label": "initialSupply",
        "offset": 0,
        "slot": "7",
        "type": "t_uint256"
      },
      {
        "astId": 442,
        "contract": "contracts/Token.sol:Token",
        "label": "UNIT_MULTIPLIER",
        "offset": 0,
        "slot": "8",
        "type": "t_uint256"
      }
    ],
    "types": {
      "t_address": {
        "encoding": "inplace",
        "label": "address",
        "numberOfBytes": "20"
      },
      "t_mapping(t_address,t_mapping(t_address,t_uint256))": {
        "encoding": "mapping",
        "key": "t_address",
        "label": "mapping(address => mapping(address => uint256))",
        "numberOfBytes": "32",
        "value": "t_mapping(t_address,t_uint256)"
      },
      "t_mapping(t_address,t_uint256)": {
        "encoding": "mapping",
        "key": "t_address",
        "label": "mapping(address => uint256)",
        "numberOfBytes": "32",
        "value": "t_uint256"
      },
      "t_string_storage": {
        "encoding": "bytes",
        "label": "string",
        "numberOfBytes": "32"
      },
      "t_uint256": {
        "encoding": "inplace",
        "label": "uint256",
        "numberOfBytes": "32"
      }
    }
  }
}