{
  "address": "0xA31b4Cf4e612b79B96A8CAFB044b646Cd9a6E2a5",
  "abi": [
    {
      "inputs": [],
      "stateMutability": "nonpayable",
      "type": "constructor"
    },
    {
      "anonymous": false,
      "inputs": [
        {
          "indexed": true,
          "internalType": "address",
          "name": "owner",
          "type": "address"
        },
        {
          "indexed": true,
          "internalType": "address",
          "name": "spender",
          "type": "address"
        },
        {
          "indexed": false,
          "internalType": "uint256",
          "name": "value",
          "type": "uint256"
        }
      ],
      "name": "Approval",
      "type": "event"
    },
    {
      "anonymous": false,
      "inputs": [
        {
          "indexed": true,
          "internalType": "address",
          "name": "from",
          "type": "address"
        },
        {
          "indexed": true,
          "internalType": "address",
          "name": "to",
          "type": "address"
        },
        {
          "indexed": false,
          "internalType": "uint256",
          "name": "value",
          "type": "uint256"
        }
      ],
      "name": "Transfer",
      "type": "event"
    },
    {
      "inputs": [],
      "name": "UNIT_MULTIPLIER",
      "outputs": [
        {
          "internalType": "uint256",
          "name": "",
          "type": "uint256"
        }
      ],
      "stateMutability": "view",
      "type": "function"
    },
    {
      "inputs": [
        {
          "internalType": "address",
          "name": "owner",
          "type": "address"
        },
        {
          "internalType": "address",
          "name": "spender",
          "type": "address"
        }
      ],
      "name": "allowance",
      "outputs": [
        {
          "internalType": "uint256",
          "name": "",
          "type": "uint256"
        }
      ],
      "stateMutability": "view",
      "type": "function"
    },
    {
      "inputs": [
        {
          "internalType": "address",
          "name": "spender",
          "type": "address"
        },
        {
          "internalType": "uint256",
          "name": "value",
          "type": "uint256"
        }
      ],
      "name": "approve",
      "outputs": [
        {
          "internalType": "bool",
          "name": "",
          "type": "bool"
        }
      ],
      "stateMutability": "nonpayable",
      "type": "function"
    },
    {
      "inputs": [],
      "name": "balance",
      "outputs": [
        {
          "internalType": "uint256",
          "name": "",
          "type": "uint256"
        }
      ],
      "stateMutability": "view",
      "type": "function"
    },
    {
      "inputs": [
        {
          "internalType": "address",
          "name": "owner",
          "type": "address"
        }
      ],
      "name": "balanceOf",
      "outputs": [
        {
          "internalType": "uint256",
          "name": "",
          "type": "uint256"
        }
      ],
      "stateMutability": "view",
      "type": "function"
    },
    {
      "inputs": [
        {
          "internalType": "address",
          "name": "account",
          "type": "address"
        },
        {
          "internalType": "uint256",
          "name": "amount",
          "type": "uint256"
        }
      ],
      "name": "burn",
      "outputs": [],
      "stateMutability": "nonpayable",
      "type": "function"
    },
    {
      "inputs": [],
      "name": "decimals",
      "outputs": [
        {
          "internalType": "uint256",
          "name": "",
          "type": "uint256"
        }
      ],
      "stateMutability": "view",
      "type": "function"
    },
    {
      "inputs": [],
      "name": "initialSupply",
      "outputs": [
        {
          "internalType": "uint256",
          "name": "",
          "type": "uint256"
        }
      ],
      "stateMutability": "view",
      "type": "function"
    },
    {
      "inputs": [
        {
          "internalType": "address",
          "name": "account",
          "type": "address"
        },
        {
          "internalType": "uint256",
          "name": "amount",
          "type": "uint256"
        }
      ],
      "name": "mint",
      "outputs": [],
      "stateMutability": "nonpayable",
      "type": "function"
    },
    {
      "inputs": [],
      "name": "name",
      "outputs": [
        {
          "internalType": "string",
          "name": "",
          "type": "string"
        }
      ],
      "stateMutability": "view",
      "type": "function"
    },
    {
      "inputs": [],
      "name": "symbol",
      "outputs": [
        {
          "internalType": "string",
          "name": "",
          "type": "string"
        }
      ],
      "stateMutability": "view",
      "type": "function"
    },
    {
      "inputs": [],
      "name": "total",
      "outputs": [
        {
          "internalType": "uint256",
          "name": "",
          "type": "uint256"
        }
      ],
      "stateMutability": "view",
      "type": "function"
    },
    {
      "inputs": [],
      "name": "totalSupply",
      "outputs": [
        {
          "internalType": "uint256",
          "name": "",
          "type": "uint256"
        }
      ],
      "stateMutability": "view",
      "type": "function"
    },
    {
      "inputs": [
        {
          "internalType": "address",
          "name": "to",
          "type": "address"
        },
        {
          "internalType": "uint256",
          "name": "value",
          "type": "uint256"
        }
      ],
      "name": "transfer",
      "outputs": [
        {
          "internalType": "bool",
          "name": "",
          "type": "bool"
        }
      ],
      "stateMutability": "nonpayable",
      "type": "function"
    },
    {
      "inputs": [
        {
          "internalType": "address",
          "name": "from",
          "type": "address"
        },
        {
          "internalType": "address",
          "name": "to",
          "type": "address"
        },
        {
          "internalType": "uint256",
          "name": "value",
          "type": "uint256"
        }
      ],
      "name": "transferFrom",
      "outputs": [
        {
          "internalType": "bool",
          "name": "",
          "type": "bool"
        }
      ],
      "stateMutability": "nonpayable",
      "type": "function"
    }
  ],
  "transactionHash": "0x758488a86cb5d336034bc40ddf13699ddbdfa90a6985b36fc5134efc18f8dc08",
  "args": [],
  "numDeployments": 4,
  "solcInputHash": "83efd286d68dbabfdbc70d54452f7a6f",
  "bytecode": "0x60806040523480156200001157600080fd5b50336000806101000a81548173ffffffffffffffffffffffffffffffffffffffff021916908373ffffffffffffffffffffffffffffffffffffffff1602179055506040518060400160405280600581526020017f546f6b656e000000000000000000000000000000000000000000000000000000815250600190805190602001906200009f929190620001c5565b506040518060400160405280600381526020017f544b4e000000000000000000000000000000000000000000000000000000000081525060029080519060200190620000ed929190620001c5565b506012600381905550600354600a620001079190620002d0565b60088190555060006103e890506200013060085482620001ad60201b62000dda1790919060201c565b600681905550600654600781905550600654600460008060009054906101000a900473ffffffffffffffffffffffffffffffffffffffff1673ffffffffffffffffffffffffffffffffffffffff1673ffffffffffffffffffffffffffffffffffffffff168152602001908152602001600020819055505062000519565b60008183620001bd91906200040d565b905092915050565b828054620001d39062000478565b90600052602060002090601f016020900481019282620001f7576000855562000243565b82601f106200021257805160ff191683800117855562000243565b8280016001018555821562000243579182015b828111156200024257825182559160200191906001019062000225565b5b50905062000252919062000256565b5090565b5b808211156200027157600081600090555060010162000257565b5090565b6000808291508390505b6001851115620002c7578086048111156200029f576200029e620004ae565b5b6001851615620002af5780820291505b8081029050620002bf856200050c565b94506200027f565b94509492505050565b6000620002dd826200046e565b9150620002ea836200046e565b9250620003197fffffffffffffffffffffffffffffffffffffffffffffffffffffffffffffffff848462000321565b905092915050565b60008262000333576001905062000406565b8162000343576000905062000406565b81600181146200035c576002811462000367576200039d565b600191505062000406565b60ff8411156200037c576200037b620004ae565b5b8360020a915084821115620003965762000395620004ae565b5b5062000406565b5060208310610133831016604e8410600b8410161715620003d75782820a905083811115620003d157620003d0620004ae565b5b62000406565b620003e6848484600162000275565b925090508184048111156200040057620003ff620004ae565b5b81810290505b9392505050565b60006200041a826200046e565b915062000427836200046e565b9250817fffffffffffffffffffffffffffffffffffffffffffffffffffffffffffffffff0483118215151615620004635762000462620004ae565b5b828202905092915050565b6000819050919050565b600060028204905060018216806200049157607f821691505b60208210811415620004a857620004a7620004dd565b5b50919050565b7f4e487b7100000000000000000000000000000000000000000000000000000000600052601160045260246000fd5b7f4e487b7100000000000000000000000000000000000000000000000000000000600052602260045260246000fd5b60008160011c9050919050565b6112f780620005296000396000f3fe608060405234801561001057600080fd5b50600436106100f55760003560e01c806340c10f1911610097578063a9059cbb11610066578063a9059cbb14610276578063b69ef8a8146102a6578063dd62ed3e146102c4578063fc540cd3146102f4576100f5565b806340c10f19146101f057806370a082311461020c57806395d89b411461023c5780639dc29fac1461025a576100f5565b806323b872dd116100d357806323b872dd146101665780632ddbd13a14610196578063313ce567146101b4578063378dc3dc146101d2576100f5565b806306fdde03146100fa578063095ea7b31461011857806318160ddd14610148575b600080fd5b610102610312565b60405161010f9190610fcb565b60405180910390f35b610132600480360381019061012d9190610efa565b6103a0565b60405161013f9190610fb0565b60405180910390f35b610150610492565b60405161015d919061100d565b60405180910390f35b610180600480360381019061017b9190610eab565b61049c565b60405161018d9190610fb0565b60405180910390f35b61019e610891565b6040516101ab919061100d565b60405180910390f35b6101bc610897565b6040516101c9919061100d565b60405180910390f35b6101da61089d565b6040516101e7919061100d565b60405180910390f35b61020a60048036038101906102059190610efa565b6108a3565b005b61022660048036038101906102219190610e46565b61092c565b604051610233919061100d565b60405180910390f35b610244610975565b6040516102519190610fcb565b60405180910390f35b610274600480360381019061026f9190610efa565b610a03565b005b610290600480360381019061028b9190610efa565b610b04565b60405161029d9190610fb0565b60405180910390f35b6102ae610d3d565b6040516102bb919061100d565b60405180910390f35b6102de60048036038101906102d99190610e6f565b610d4d565b6040516102eb919061100d565b60405180910390f35b6102fc610dd4565b604051610309919061100d565b60405180910390f35b6001805461031f906111a3565b80601f016020809104026020016040519081016040528092919081815260200182805461034b906111a3565b80156103985780601f1061036d57610100808354040283529160200191610398565b820191906000526020600020905b81548152906001019060200180831161037b57829003601f168201915b505050505081565b600081600560003373ffffffffffffffffffffffffffffffffffffffff1673ffffffffffffffffffffffffffffffffffffffff16815260200190815260200160002060008573ffffffffffffffffffffffffffffffffffffffff1673ffffffffffffffffffffffffffffffffffffffff168152602001908152602001600020819055508273ffffffffffffffffffffffffffffffffffffffff163373ffffffffffffffffffffffffffffffffffffffff167f8c5be1e5ebec7d5bd14f71427d1e84f3dd0314c0f7b2291e5b200ac8c7c3b92584604051610480919061100d565b60405180910390a36001905092915050565b6000600654905090565b60008073ffffffffffffffffffffffffffffffffffffffff168473ffffffffffffffffffffffffffffffffffffffff1614156104d757600080fd5b600560008573ffffffffffffffffffffffffffffffffffffffff1673ffffffffffffffffffffffffffffffffffffffff16815260200190815260200160002060003373ffffffffffffffffffffffffffffffffffffffff1673ffffffffffffffffffffffffffffffffffffffff1681526020019081526020016000205482111561056057600080fd5b6105698461092c565b82111561057557600080fd5b600073ffffffffffffffffffffffffffffffffffffffff168373ffffffffffffffffffffffffffffffffffffffff1614156105af57600080fd5b8273ffffffffffffffffffffffffffffffffffffffff168473ffffffffffffffffffffffffffffffffffffffff1614156105e857600080fd5b61063a82600460008773ffffffffffffffffffffffffffffffffffffffff1673ffffffffffffffffffffffffffffffffffffffff16815260200190815260200160002054610df090919063ffffffff16565b600460008673ffffffffffffffffffffffffffffffffffffffff1673ffffffffffffffffffffffffffffffffffffffff168152602001908152602001600020819055506106cf82600460008673ffffffffffffffffffffffffffffffffffffffff1673ffffffffffffffffffffffffffffffffffffffff16815260200190815260200160002054610e0690919063ffffffff16565b600460008573ffffffffffffffffffffffffffffffffffffffff1673ffffffffffffffffffffffffffffffffffffffff168152602001908152602001600020819055506107a182600560008773ffffffffffffffffffffffffffffffffffffffff1673ffffffffffffffffffffffffffffffffffffffff16815260200190815260200160002060003373ffffffffffffffffffffffffffffffffffffffff1673ffffffffffffffffffffffffffffffffffffffff16815260200190815260200160002054610df090919063ffffffff16565b600560008673ffffffffffffffffffffffffffffffffffffffff1673ffffffffffffffffffffffffffffffffffffffff16815260200190815260200160002060003373ffffffffffffffffffffffffffffffffffffffff1673ffffffffffffffffffffffffffffffffffffffff168152602001908152602001600020819055508273ffffffffffffffffffffffffffffffffffffffff168473ffffffffffffffffffffffffffffffffffffffff167fddf252ad1be2c89b69c2b068fc378daa952ba7f163c4a11628f55a4df523b3ef8460405161087e919061100d565b60405180910390a3600190509392505050565b60065481565b60035481565b60075481565b80670de0b6b3a76400006108b7919061109a565b905080600660008282546108cb9190611044565b9250508190555080600460008473ffffffffffffffffffffffffffffffffffffffff1673ffffffffffffffffffffffffffffffffffffffff16815260200190815260200160002060008282546109219190611044565b925050819055505050565b6000600460008373ffffffffffffffffffffffffffffffffffffffff1673ffffffffffffffffffffffffffffffffffffffff168152602001908152602001600020549050919050565b60028054610982906111a3565b80601f01602080910402602001604051908101604052809291908181526020018280546109ae906111a3565b80156109fb5780601f106109d0576101008083540402835291602001916109fb565b820191906000526020600020905b8154815290600101906020018083116109de57829003601f168201915b505050505081565b80670de0b6b3a7640000610a17919061109a565b90506000600460008473ffffffffffffffffffffffffffffffffffffffff1673ffffffffffffffffffffffffffffffffffffffff16815260200190815260200160002054905081811015610aa0576040517f08c379a0000000000000000000000000000000000000000000000000000000008152600401610a9790610fed565b60405180910390fd5b818103600460008573ffffffffffffffffffffffffffffffffffffffff1673ffffffffffffffffffffffffffffffffffffffff168152602001908152602001600020819055508160066000828254610af891906110f4565b92505081905550505050565b600081670de0b6b3a7640000610b1a919061109a565b9150600073ffffffffffffffffffffffffffffffffffffffff168373ffffffffffffffffffffffffffffffffffffffff161415610b5657600080fd5b3373ffffffffffffffffffffffffffffffffffffffff168373ffffffffffffffffffffffffffffffffffffffff161415610b8f57600080fd5b610b983361092c565b821115610ba457600080fd5b610bf682600460003373ffffffffffffffffffffffffffffffffffffffff1673ffffffffffffffffffffffffffffffffffffffff16815260200190815260200160002054610df090919063ffffffff16565b600460003373ffffffffffffffffffffffffffffffffffffffff1673ffffffffffffffffffffffffffffffffffffffff16815260200190815260200160002081905550610c8b82600460008673ffffffffffffffffffffffffffffffffffffffff1673ffffffffffffffffffffffffffffffffffffffff16815260200190815260200160002054610e0690919063ffffffff16565b600460008573ffffffffffffffffffffffffffffffffffffffff1673ffffffffffffffffffffffffffffffffffffffff168152602001908152602001600020819055508273ffffffffffffffffffffffffffffffffffffffff163373ffffffffffffffffffffffffffffffffffffffff167fddf252ad1be2c89b69c2b068fc378daa952ba7f163c4a11628f55a4df523b3ef84604051610d2b919061100d565b60405180910390a36001905092915050565b6000610d483361092c565b905090565b6000600560008473ffffffffffffffffffffffffffffffffffffffff1673ffffffffffffffffffffffffffffffffffffffff16815260200190815260200160002060008373ffffffffffffffffffffffffffffffffffffffff1673ffffffffffffffffffffffffffffffffffffffff16815260200190815260200160002054905092915050565b60085481565b60008183610de8919061109a565b905092915050565b60008183610dfe91906110f4565b905092915050565b60008183610e149190611044565b905092915050565b600081359050610e2b81611293565b92915050565b600081359050610e40816112aa565b92915050565b600060208284031215610e5857600080fd5b6000610e6684828501610e1c565b91505092915050565b60008060408385031215610e8257600080fd5b6000610e9085828601610e1c565b9250506020610ea185828601610e1c565b9150509250929050565b600080600060608486031215610ec057600080fd5b6000610ece86828701610e1c565b9350506020610edf86828701610e1c565b9250506040610ef086828701610e31565b9150509250925092565b60008060408385031215610f0d57600080fd5b6000610f1b85828601610e1c565b9250506020610f2c85828601610e31565b9150509250929050565b610f3f8161113a565b82525050565b6000610f5082611028565b610f5a8185611033565b9350610f6a818560208601611170565b610f7381611233565b840191505092915050565b6000610f8b602283611033565b9150610f9682611244565b604082019050919050565b610faa81611166565b82525050565b6000602082019050610fc56000830184610f36565b92915050565b60006020820190508181036000830152610fe58184610f45565b905092915050565b6000602082019050818103600083015261100681610f7e565b9050919050565b60006020820190506110226000830184610fa1565b92915050565b600081519050919050565b600082825260208201905092915050565b600061104f82611166565b915061105a83611166565b9250827fffffffffffffffffffffffffffffffffffffffffffffffffffffffffffffffff0382111561108f5761108e6111d5565b5b828201905092915050565b60006110a582611166565b91506110b083611166565b9250817fffffffffffffffffffffffffffffffffffffffffffffffffffffffffffffffff04831182151516156110e9576110e86111d5565b5b828202905092915050565b60006110ff82611166565b915061110a83611166565b92508282101561111d5761111c6111d5565b5b828203905092915050565b600061113382611146565b9050919050565b60008115159050919050565b600073ffffffffffffffffffffffffffffffffffffffff82169050919050565b6000819050919050565b60005b8381101561118e578082015181840152602081019050611173565b8381111561119d576000848401525b50505050565b600060028204905060018216806111bb57607f821691505b602082108114156111cf576111ce611204565b5b50919050565b7f4e487b7100000000000000000000000000000000000000000000000000000000600052601160045260246000fd5b7f4e487b7100000000000000000000000000000000000000000000000000000000600052602260045260246000fd5b6000601f19601f8301169050919050565b7f45524332303a206275726e20616d6f756e7420657863656564732062616c616e60008201527f6365000000000000000000000000000000000000000000000000000000000000602082015250565b61129c81611128565b81146112a757600080fd5b50565b6112b381611166565b81146112be57600080fd5b5056fea264697066735822122086fce68447c7ea017a3e2fa7a08f3a047225c92b1c7128b65714045e09d31e2864736f6c63430008040033",
  "devdoc": {
    "kind": "dev",
    "methods": {
      "allowance(address,address)": {
        "details": "Checks the amount of tokens that an owner allowed to a spender.",
        "params": {
          "owner": "address The address which owns the funds.",
          "spender": "address The address which will spend the funds."
        },
        "returns": {
          "_0": "A uint256 specifying the amount of tokens still available for the spender."
        }
      },
      "approve(address,uint256)": {
        "details": "Approves the passed address to spend the specified amount of tokens       on behalf of msg.sender.",
        "params": {
          "spender": "The address which will spend the funds.",
          "value": "The amount of tokens to be spent."
        },
        "returns": {
          "_0": "A bool indicating success (always returns true)"
        }
      },
      "balance()": {
        "details": "Gets the balance of the calling address.",
        "returns": {
          "_0": "An uint256 representing the amount owned by the calling address"
        }
      },
      "balanceOf(address)": {
        "details": "Gets the balance of the specified address.",
        "params": {
          "owner": "The address to query the balance of"
        },
        "returns": {
          "_0": "An uint256 representing the amount owned by the passed address"
        }
      },
      "burn(address,uint256)": {
        "details": "Destroys `amount` tokens from `account`, reducing the total supply. View OpenZeppelin ERC20 _burn for more advanced burning features https://github.com/OpenZeppelin/openzeppelin-contracts/blob/5b6112000c2e1b61db63d7b0bb33ab0775ec0975/contracts/token/ERC20/ERC20.sol#L280 Requirements: - `account` must have at least `amount` tokens."
      },
      "mint(address,uint256)": {
        "details": "Creates `amount` tokens and assigns them to `account`, increasing the total supply. View OpenZeppelin ERC20 _mint for more advanced minting features https://github.com/OpenZeppelin/openzeppelin-contracts/blob/5b6112000c2e1b61db63d7b0bb33ab0775ec0975/contracts/token/ERC20/ERC20.sol#L257 "
      },
      "totalSupply()": {
        "details": "Total supply of tokens"
      },
      "transfer(address,uint256)": {
        "details": "Transfers token for a specified address",
        "params": {
          "to": "The address to transfer to.",
          "value": "The amount to be transferred."
        },
        "returns": {
          "_0": "A bool indicating if the transfer was successful."
        }
      },
      "transferFrom(address,address,uint256)": {
        "details": "Transfers tokens from one address to another",
        "params": {
          "from": "address The address which you want to send tokens from",
          "to": "address The address which you want to transfer to",
          "value": "uint256 the amount of tokens to be transferred"
        },
        "returns": {
          "_0": "A bool indicating if the transfer was successful."
        }
      }
    },
    "version": 1
  },
  "userdoc": {
    "kind": "user",
    "methods": {},
    "version": 1
  },
  "storageLayout": {
    "storage": [
      {
        "astId": 320,
        "contract": "contracts/Token.sol:Token",
        "label": "contractOwner",
        "offset": 0,
        "slot": "0",
        "type": "t_address"
      },
      {
        "astId": 322,
        "contract": "contracts/Token.sol:Token",
        "label": "name",
        "offset": 0,
        "slot": "1",
        "type": "t_string_storage"
      },
      {
        "astId": 324,
        "contract": "contracts/Token.sol:Token",
        "label": "symbol",
        "offset": 0,
        "slot": "2",
        "type": "t_string_storage"
      },
      {
        "astId": 326,
        "contract": "contracts/Token.sol:Token",
        "label": "decimals",
        "offset": 0,
        "slot": "3",
        "type": "t_uint256"
      },
      {
        "astId": 330,
        "contract": "contracts/Token.sol:Token",
        "label": "balances",
        "offset": 0,
        "slot": "4",
        "type": "t_mapping(t_address,t_uint256)"
      },
      {
        "astId": 336,
        "contract": "contracts/Token.sol:Token",
        "label": "allowed",
        "offset": 0,
        "slot": "5",
        "type": "t_mapping(t_address,t_mapping(t_address,t_uint256))"
      },
      {
        "astId": 338,
        "contract": "contracts/Token.sol:Token",
        "label": "total",
        "offset": 0,
        "slot": "6",
        "type": "t_uint256"
      },
      {
        "astId": 340,
        "contract": "contracts/Token.sol:Token",
        "label": "initialSupply",
        "offset": 0,
        "slot": "7",
        "type": "t_uint256"
      },
      {
        "astId": 342,
        "contract": "contracts/Token.sol:Token",
        "label": "UNIT_MULTIPLIER",
        "offset": 0,
        "slot": "8",
        "type": "t_uint256"
      }
    ],
    "types": {
      "t_address": {
        "encoding": "inplace",
        "label": "address",
        "numberOfBytes": "20"
      },
      "t_mapping(t_address,t_mapping(t_address,t_uint256))": {
        "encoding": "mapping",
        "key": "t_address",
        "label": "mapping(address => mapping(address => uint256))",
        "numberOfBytes": "32",
        "value": "t_mapping(t_address,t_uint256)"
      },
      "t_mapping(t_address,t_uint256)": {
        "encoding": "mapping",
        "key": "t_address",
        "label": "mapping(address => uint256)",
        "numberOfBytes": "32",
        "value": "t_uint256"
      },
      "t_string_storage": {
        "encoding": "bytes",
        "label": "string",
        "numberOfBytes": "32"
      },
      "t_uint256": {
        "encoding": "inplace",
        "label": "uint256",
        "numberOfBytes": "32"
      }
    }
  }
}